{
    "contractName": "Lock",
    "abi": [
        {
            "anonymous": false,
            "inputs": [
                {
                    "indexed": false,
                    "internalType": "address",
                    "name": "_from",
                    "type": "address"
                },
                {
                    "indexed": false,
                    "internalType": "address",
                    "name": "_to",
                    "type": "address"
                },
                {
                    "indexed": false,
                    "internalType": "uint256",
                    "name": "_value",
                    "type": "uint256"
                }
            ],
            "name": "TokenTransfered",
            "type": "event"
        },
        {
            "inputs": [],
            "name": "getAllIds",
            "outputs": [
                {
                    "internalType": "uint256[]",
                    "name": "",
                    "type": "uint256[]"
                }
            ],
            "stateMutability": "view",
            "type": "function"
        },
        {
            "inputs": [
                {
                    "internalType": "uint256",
                    "name": "_index",
                    "type": "uint256"
                }
            ],
            "name": "getDetailsOf",
            "outputs": [
                {
                    "components": [
                        {
                            "internalType": "uint256",
                            "name": "id",
                            "type": "uint256"
                        },
                        {
                            "internalType": "address",
                            "name": "tokenAddress",
                            "type": "address"
                        },
                        {
                            "internalType": "address",
                            "name": "owner",
                            "type": "address"
                        },
                        {
                            "internalType": "uint256",
                            "name": "lockedTime",
                            "type": "uint256"
                        },
                        {
                            "internalType": "uint256",
                            "name": "unlockTime",
                            "type": "uint256"
                        },
                        {
                            "internalType": "uint256",
                            "name": "amount",
                            "type": "uint256"
                        },
                        {
                            "internalType": "bool",
                            "name": "withdrawed",
                            "type": "bool"
                        }
                    ],
                    "internalType": "struct Lock.Details",
                    "name": "",
                    "type": "tuple"
                }
            ],
            "stateMutability": "view",
            "type": "function"
        },
        {
            "inputs": [
                {
                    "internalType": "address",
                    "name": "_tokenAddress",
                    "type": "address"
                },
                {
                    "internalType": "uint256",
                    "name": "_amount",
                    "type": "uint256"
                },
                {
                    "internalType": "uint256",
                    "name": "_unlockTime",
                    "type": "uint256"
                }
            ],
            "name": "lockToken",
            "outputs": [],
            "stateMutability": "nonpayable",
            "type": "function"
        },
        {
            "inputs": [
                {
                    "internalType": "address",
                    "name": "_tokenAddress",
                    "type": "address"
                }
            ],
            "name": "myTokenBalance",
            "outputs": [
                {
                    "internalType": "uint256",
                    "name": "",
                    "type": "uint256"
                }
            ],
            "stateMutability": "view",
            "type": "function"
        },
        {
            "inputs": [],
            "name": "myTransactions",
            "outputs": [
                {
                    "internalType": "uint256[]",
                    "name": "",
                    "type": "uint256[]"
                }
            ],
            "stateMutability": "view",
            "type": "function"
        },
        {
            "inputs": [
                {
                    "internalType": "address",
                    "name": "_tokenAddress",
                    "type": "address"
                }
            ],
            "name": "tokenBalanceOf",
            "outputs": [
                {
                    "internalType": "uint256",
                    "name": "",
                    "type": "uint256"
                }
            ],
            "stateMutability": "view",
            "type": "function"
        },
        {
            "inputs": [
                {
                    "internalType": "uint256",
                    "name": "_id",
                    "type": "uint256"
                }
            ],
            "name": "withDrawToken",
            "outputs": [],
            "stateMutability": "nonpayable",
            "type": "function"
        }
    ],
    "bytecode": "60806040526000805534801561001457600080fd5b5061098d806100246000396000f3fe608060405234801561001057600080fd5b506004361061007d5760003560e01c8063a21c27351161005b578063a21c273514610123578063aaa44e5c14610167578063d0b5c5ca1461017c578063e42c08f21461018457600080fd5b80630bade940146100825780633136e12a146100fb578063839972f914610110575b600080fd5b610095610090366004610805565b610197565b60408051825181526020808401516001600160a01b0390811691830191909152838301511691810191909152606080830151908201526080808301519082015260a0808301519082015260c09182015115159181019190915260e0015b60405180910390f35b61010e610109366004610805565b610260565b005b61010e61011e36600461083a565b6104cc565b61015961013136600461086d565b3360009081526005602090815260408083206001600160a01b03949094168352929052205490565b6040519081526020016100f2565b61016f6106dd565b6040516100f2919061088f565b61016f610735565b61015961019236600461086d565b610794565b6101eb6040518060e001604052806000815260200160006001600160a01b0316815260200160006001600160a01b031681526020016000815260200160008152602001600081526020016000151581525090565b50600090815260026020818152604092839020835160e0810185528154815260018201546001600160a01b039081169382019390935292810154909116928201929092526003820154606082015260048201546080820152600582015460a082015260069091015460ff16151560c082015290565b336000908152600360205260409020548111156102bc5760405162461bcd60e51b8152602060048201526015602482015274141b19585cd948115b9d195c881d985b1a59081259605a1b60448201526064015b60405180910390fd5b600081815260026020819052604090912001546001600160a01b031633146103345760405162461bcd60e51b815260206004820152602560248201527f596f7520617265206e6f7420617574686f72697a656420666f722077697468646044820152641c985dd85b60da1b60648201526084016102b3565b6000818152600260205260409020600401544210156103a85760405162461bcd60e51b815260206004820152602a60248201527f596f752063616e277420776974686472617720746f6b656e206265666f726520604482015269756e6c6f636b74696d6560b01b60648201526084016102b3565b60008181526002602052604090206006015460ff16156104155760405162461bcd60e51b815260206004820152602260248201527f596f75206861766520616c7265616479207769746864726177656420746f6b656044820152616e7360f01b60648201526084016102b3565b600081815260026020526040908190206005810154600190910154915163a9059cbb60e01b81523360048201526024810182905290916001600160a01b031690819063a9059cbb906044016020604051808303816000875af115801561047f573d6000803e3d6000fd5b505050506040513d601f19601f820116820180604052508101906104a391906108d3565b50505060009081526002602052604081206005810191909155600601805460ff19166001179055565b6040516323b872dd60e01b8152336004820152306024820152604481018390526001600160a01b038416906323b872dd906064016020604051808303816000875af115801561051f573d6000803e3d6000fd5b505050506040513d601f19601f8201168201806040525081019061054391906108d3565b5060008054808252600260208190526040808420928355600190920180546001600160a01b0388166001600160a01b031991821617909155835484528284209091018054909116331790558154825290204260039091018190556105a890829061090b565b6000805481526002602090815260408083206004019390935581548252828220600590810186905582548352838320600601805460ff1916905533835281528282206001600160a01b03871683529052908120805484929061060b90849061090b565b9091555050336000908152600360209081526040808320835481546001818101845592865284862001558354815480830183557fb10e2d527612073b26eecdfd717e6a320cf44b4afac2b0732d9fcbe2b7fa0cf6018190556001600160a01b038816855260048452918420805491820181558452918320909101558054908061069383610923565b9091555050604080513381523060208201529081018390527fec61728879a33aa50b55e1f4789dcfc1c680f30a24d7b8694a9f874e242a97b49060600160405180910390a1505050565b6060600180548060200260200160405190810160405280929190818152602001828054801561072b57602002820191906000526020600020905b815481526020019060010190808311610717575b5050505050905090565b3360009081526003602090815260409182902080548351818402810184019094528084526060939283018282801561072b5760200282019190600052602060002090815481526020019060010190808311610717575050505050905090565b6040516370a0823160e01b81523060048201526000906001600160a01b038316906370a0823190602401602060405180830381865afa1580156107db573d6000803e3d6000fd5b505050506040513d601f19601f820116820180604052508101906107ff919061093e565b92915050565b60006020828403121561081757600080fd5b5035919050565b80356001600160a01b038116811461083557600080fd5b919050565b60008060006060848603121561084f57600080fd5b6108588461081e565b95602085013595506040909401359392505050565b60006020828403121561087f57600080fd5b6108888261081e565b9392505050565b6020808252825182820181905260009190848201906040850190845b818110156108c7578351835292840192918401916001016108ab565b50909695505050505050565b6000602082840312156108e557600080fd5b8151801515811461088857600080fd5b634e487b7160e01b600052601160045260246000fd5b6000821982111561091e5761091e6108f5565b500190565b6000600019821415610937576109376108f5565b5060010190565b60006020828403121561095057600080fd5b505191905056fea2646970667358221220f142578063003fbeff331fec76febf98491d62d5f9a325cba7c78bab63144bb464736f6c634300080c0033",
    "sourcePath": "/home/adarshkumarmoradiya/project/contracts/Lock.sol",
    "compiler": {
        "name": "solc",
        "version": "0.8.12+commit.f00d7308"
    },
    "functionHashes": {
        "getAllIds()": "aaa44e5c",
        "getDetailsOf(uint256)": "0bade940",
        "lockToken(address,uint256,uint256)": "839972f9",
        "myTokenBalance(address)": "a21c2735",
        "myTransactions()": "d0b5c5ca",
        "tokenBalanceOf(address)": "e42c08f2",
        "withDrawToken(uint256)": "3136e12a"
    },
    "gasEstimates": {
        "creation": {
            "codeDepositCost": "489000",
            "executionCost": "5530",
            "totalCost": "494530"
        },
        "external": {
            "getAllIds()": "infinite",
            "getDetailsOf(uint256)": "15744",
            "lockToken(address,uint256,uint256)": "infinite",
            "myTokenBalance(address)": "2614",
            "myTransactions()": "infinite",
            "tokenBalanceOf(address)": "infinite",
            "withDrawToken(uint256)": "infinite"
        }
    }
}